:10098B00456D6265646465642053797374656D00AD
:10095200E4FDFCC3ED9FEC9E5015E4FBFA0BBB00DB
:0F096200010AEB64704A70F50DBD00010C80E4D2
:010971002263
:100972008FB0ED24FF92A0C2A1D2A27F017E00120D
:090982000952C2A27F05020952CC
:100928007F147E00120952E4FD7F38120972E4FD3B
:100938007F0C120972E4FD7F01120972E4FD7F0643
:0A094800120972E4FD7F80020972BB
:1008F60078087C007D007BFF7A09798B7E007F106B
:100906001208D0120928E4F9E9C39410748094807F
:10091600500E740829F8E6FF7D011209720980E875
:0209260080FE51
:0300000002099B57
:0C099B00787FE4F6D8FD7581170208F69D
:10080000E709F608DFFA8046E709F208DFFA803EDA
:1008100088828C83E709F0A3DFFA8032E309F608C7
:10082000DFFA8078E309F208DFFA807088828C832F
:10083000E309F0A3DFFA806489828A83E0A3F608E3
:10084000DFFA805889828A83E0A3F208DFFA804CBD
:1008500080D280FA80C680D4806980F28033801094
:1008600080A680EA809A80A880DA80E280CA8033FD
:1008700089828A83ECFAE493A3C8C582C8CCC58375
:10088000CCF0A3C8C582C8CCC583CCDFE9DEE78045
:100890000D89828A83E493A3F608DFF9ECFAA9F0C4
:1008A000EDFB2289828A83ECFAE0A3C8C582C8CC1A
:1008B000C583CCF0A3C8C582C8CCC583CCDFEADE33
:1008C000E880DB89828A83E493A3F208DFF980CC95
:1008D00088F0EF60010E4E60C388F0ED2402B4048E
:1008E0000050B9F582EB2402B4040050AF23234535
:0608F00082239008507302
:00000001FF
