:1008A200E4FDFCC3ED9FEC9E5015E4FBFA0BBB008C
:0F08B200010AEB64714A70F50DBD00010C80E482
:0108C1002214
:0908C200E92430FFE433FE7D015E
:1008CB008FA0C286ED24FF9285D2877F0A7E00120D
:0508DB0008A2C2872203
:1008E000E4FD7F38FE1208CBE4FD7F0CFE1208CB3E
:0808F000E4FD7F01FE0208CBCC
:10085500758906D2B41208E0E4F58CF58AD28C20AD
:100865008D35E4FD7F80FE1208CBAF8A7508008FB9
:1008750009AE087C007D0A120800A9071208C2AE5D
:1008850008AF097C007D0A120800A9051208C2E517
:0D089500096464450870C8C28DC28C80BB28
:030000000208F8FB
:0C08F800787FE4F6D8FD758109020855F0
:10080000BC000BBE0029EF8DF084FFADF022E4CCDC
:10081000F875F008EF2FFFEE33FEEC33FCEE9DECA5
:10082000984005FCEE9DFE0FD5F0E9E4CEFD22EDEB
:10083000F8F5F0EE8420D21CFEADF075F008EF2F35
:10084000FFED33FD4007985006D5F0F222C398FD26
:050850000FD5F0EA22C3
:00000001FF
